:100000000C942A000C943F000C943F000C943F0089
:100010000C943F000C943F000C943F000C943F0064
:100020000C943F000C943F000C943F000C943F0054
:100030000C943F000C943F000C943F000C943F0044
:100040000C943F000C943F000C943F000C943F0034
:100050000C943F0011241FBECFE5D8E0DEBFCDBF1A
:1000600010E0A0E6B0E0E8E4F7E002C005900D92F1
:10007000AA37B107D9F70E94C0000C94A2030C94D0
:1000800000008BBB85B38E7F85BB85B38D7F85BB21
:1000900085B3846085BB83EF91E00197F1F700C0E1
:1000A000000085B38B7F85BB08958BBB85B38160D2
:1000B00085BB85B38D7F85BB85B3846085BB83EFAE
:1000C00091E00197F1F700C0000085B38B7F85BBFD
:1000D000089588E30E94410083EF91E00197F1F7D2
:1000E00000C0000081E00E94410083EF91E0019791
:1000F000F1F700C0000082E00E94410083EF91E030
:100100000197F1F700C0000086E00E94410083EFF4
:1001100091E00197F1F700C0000080E80E944100E3
:1001200083EF91E00197F1F700C0000008950F936D
:100130001F93CF93DF938C01C0E0D0E003C00E94F7
:1001400055002196F801EC0FFD1F80818111F7CF3A
:10015000DF91CF911F910F91089581E00E9441009E
:1001600083EF91E00197F1F700C0000080E80E9462
:10017000410008958AE683BF87B3886087BB0895EE
:10018000CF93DF93CDB7DEB765970FB6F894DEBF98
:100190000FBECDBF8FEF8ABB84BB11BA82BB0E945A
:1001A000690087EA91E60197F1F700C000008CE052
:1001B0000E94410087EA91E60197F1F700C0000034
:1001C0000E94BA001FBC1DBC1CBC80E288BF81E439
:1001D0008EBD08B605FEFDCF86B597B520E228BFD7
:1001E00021E02EBD08B605FEFDCF66B577B520E24D
:1001F00028BF21E42EBD08B605FEFDCFC6B4D7B496
:1002000020E228BF1EBC8617970708F061C06C1556
:100210007D0508F05DC08B01081B190BC81AD90AAF
:10022000E12CF12C60E074E284EF90E0A7019601EC
:100230000E941A0349015A01B80180E090E00E942F
:100240001F022B013C01C701B6010E941F029B0146
:10025000AC01C301B2010E94770120E030E048EC1C
:1002600052E40E94AD026B017C012AE0AE014F5FB7
:100270005F4FC501B4010E944703C701B6010E9448
:10028000E901DC01CB014AE0BE01615F7F4F0E94C2
:100290003C0380E80E94410080E690E00E949700C5
:1002A000CE0101960E94970083E690E00E9497009D
:1002B00080EC0E94410086E690E00E949700CE010B
:1002C0000F960E9497008BE690E00E94970006C070
:1002D0000E94AD008DE690E00E94970083ED90E3D0
:1002E0000197F1F700C0000084E68CBF6BCF0E943D
:1002F0008B010C9473020E946C0258F00E946502FC
:1003000040F029F45F3F29F00C945C0251110C94E9
:10031000A7020C9462020E94840268F39923B1F34D
:10032000552391F3951B550BBB27AA27621773071B
:10033000840738F09F5F5F4F220F331F441FAA1FAF
:10034000A9F335D00E2E3AF0E0E832D0915050406B
:10035000E695001CCAF72BD0FE2F29D0660F771F19
:10036000881FBB1F261737074807AB07B0E809F0FF
:10037000BB0B802DBF01FF2793585F4F3AF09E3F84
:10038000510578F00C945C020C94A7025F3FE4F3F3
:10039000983ED4F3869577956795B795F7959F5FC7
:1003A000C9F7880F911D9695879597F90895E1E013
:1003B000660F771F881FBB1F621773078407BA0772
:1003C00020F0621B730B840BBA0BEE1F88F7E095CD
:1003D00008950E94F0016894B1110C94A702089549
:1003E0000E948C0288F09F5798F0B92F9927B75137
:1003F000B0F0E1F0660F771F881F991F1AF0BA95C9
:10040000C9F714C0B13091F00E94A602B1E008957E
:100410000C94A602672F782F8827B85F39F0B93F70
:10042000CCF3869577956795B395D9F73EF490957B
:100430008095709561957F4F8F4F9F4F0895E894F9
:1004400009C097FB3EF490958095709561957F4F1C
:100450008F4F9F4F9923A9F0F92F96E9BB279395CA
:10046000F695879577956795B795F111F8CFFAF4DA
:10047000BB0F11F460FF1BC06F5F7F4F8F4F9F4F0B
:1004800016C0882311F096E911C0772321F09EE869
:10049000872F762F05C0662371F096E8862F70E0CF
:1004A00060E02AF09A95660F771F881FDAF7880FA9
:1004B0009695879597F9089597F99F6780E870E07A
:1004C00060E008959FEF80EC089500240A941616CA
:1004D000170618060906089500240A941216130632
:1004E000140605060895092E0394000C11F48823C0
:1004F00052F0BB0F40F4BF2B11F460FF04C06F5FDC
:100500007F4F8F4F9F4F089557FD9058440F551FB1
:1005100059F05F3F71F04795880F97FB991F61F085
:100520009F3F79F087950895121613061406551FFC
:10053000F2CF4695F1DF08C0161617061806991F68
:10054000F1CF86957105610508940895E894BB275D
:1005500066277727CB0197F908950E94C0020C9473
:1005600073020E94650238F00E946C0220F095230D
:1005700011F00C945C020C94620211240C94A702FA
:100580000E94840270F3959FC1F3950F50E0551FB0
:10059000629FF001729FBB27F00DB11D639FAA27D8
:1005A000F00DB11DAA1F649F6627B00DA11D661F27
:1005B000829F2227B00DA11D621F739FB00DA11D48
:1005C000621F839FA00D611D221F749F3327A00D02
:1005D000611D231F849F600D211D822F762F6A2F9E
:1005E00011249F5750409AF0F1F088234AF0EE0F03
:1005F000FF1FBB1F661F771F881F91505040A9F730
:100600009E3F510580F00C945C020C94A7025F3F62
:10061000E4F3983ED4F3869577956795B795F7956B
:10062000E7959F5FC1F7FE2B880F911D96958795E3
:1006300097F90895A1E21A2EAA1BBB1BFD010DC05C
:10064000AA1FBB1FEE1FFF1FA217B307E407F50782
:1006500020F0A21BB30BE40BF50B661F771F881F5E
:10066000991F1A9469F760957095809590959B01F4
:10067000AC01BD01CF010895BB274A3031F4992365
:1006800022F4BDE2909581959F4F0C947903BB278E
:100690002A3051F4992342F4BDE2909580957095EB
:1006A00061957F4F8F4F9F4F0C945703BB27FA01E3
:1006B000A62F6217710581059105330B30FB66F09B
:1006C000AA27660F771F881F991FAA1FA21710F06D
:1006D000A21B63953850A9F7A05DAA3308F0A95D65
:1006E000A19336F7B111B1931082CA010C94920311
:1006F000BB27FB015527AA27880F991FAA1FA417FC
:1007000010F0A41B83955051B9F7A05DAA3308F0EF
:10071000A95DA193009779F7B111B1931192CB0123
:100720000C949203DC01FC01672F71917723E1F7B0
:10073000329704C07C916D9370836291AE17BF07AE
:08074000C8F30895F894FFCFFF
:10074800463A00487A002044433A0025006F757401
:0A075800206F662072616E67650075
:00000001FF
